{
  "contractName": "Payment_Contract",
  "abi": [
    {
      "inputs": [
        {
          "internalType": "uint256",
          "name": "duration",
          "type": "uint256"
        }
      ],
      "payable": true,
      "stateMutability": "payable",
      "type": "constructor"
    },
    {
      "anonymous": false,
      "inputs": [
        {
          "indexed": false,
          "internalType": "address",
          "name": "add",
          "type": "address"
        }
      ],
      "name": "joinEvent",
      "type": "event"
    },
    {
      "constant": true,
      "inputs": [],
      "name": "expiration",
      "outputs": [
        {
          "internalType": "uint256",
          "name": "",
          "type": "uint256"
        }
      ],
      "payable": false,
      "stateMutability": "view",
      "type": "function"
    },
    {
      "constant": true,
      "inputs": [],
      "name": "recipient",
      "outputs": [
        {
          "internalType": "address payable",
          "name": "",
          "type": "address"
        }
      ],
      "payable": false,
      "stateMutability": "view",
      "type": "function"
    },
    {
      "constant": true,
      "inputs": [],
      "name": "sender",
      "outputs": [
        {
          "internalType": "address payable",
          "name": "",
          "type": "address"
        }
      ],
      "payable": false,
      "stateMutability": "view",
      "type": "function"
    },
    {
      "constant": false,
      "inputs": [],
      "name": "joinContract",
      "outputs": [],
      "payable": false,
      "stateMutability": "nonpayable",
      "type": "function"
    },
    {
      "constant": false,
      "inputs": [
        {
          "internalType": "uint256",
          "name": "amount",
          "type": "uint256"
        },
        {
          "internalType": "uint256",
          "name": "nonce",
          "type": "uint256"
        },
        {
          "internalType": "bytes",
          "name": "signature",
          "type": "bytes"
        }
      ],
      "name": "close",
      "outputs": [],
      "payable": false,
      "stateMutability": "nonpayable",
      "type": "function"
    },
    {
      "constant": false,
      "inputs": [
        {
          "internalType": "uint256",
          "name": "newExpiration",
          "type": "uint256"
        }
      ],
      "name": "extend",
      "outputs": [],
      "payable": false,
      "stateMutability": "nonpayable",
      "type": "function"
    },
    {
      "constant": false,
      "inputs": [
        {
          "internalType": "address payable",
          "name": "sender",
          "type": "address"
        }
      ],
      "name": "claimTimeout",
      "outputs": [],
      "payable": false,
      "stateMutability": "nonpayable",
      "type": "function"
    }
  ],
  "bytecode": "0x60806040526040516108c53803806108c58339818101604052602081101561002657600080fd5b8101908080519060200190929190505050336000806101000a81548173ffffffffffffffffffffffffffffffffffffffff021916908373ffffffffffffffffffffffffffffffffffffffff16021790555080420160028190555050610835806100906000396000f3fe608060405234801561001057600080fd5b506004361061007d5760003560e01c80639714378c1161005b5780639714378c14610134578063be03862c14610162578063dd00a9dc146101a6578063e1631c1b146102755761007d565b80634665096d1461008257806366d003ac146100a057806367e404ce146100ea575b600080fd5b61008a61027f565b6040518082815260200191505060405180910390f35b6100a8610285565b604051808273ffffffffffffffffffffffffffffffffffffffff1673ffffffffffffffffffffffffffffffffffffffff16815260200191505060405180910390f35b6100f26102ab565b604051808273ffffffffffffffffffffffffffffffffffffffff1673ffffffffffffffffffffffffffffffffffffffff16815260200191505060405180910390f35b6101606004803603602081101561014a57600080fd5b81019080803590602001909291905050506102d0565b005b6101a46004803603602081101561017857600080fd5b81019080803573ffffffffffffffffffffffffffffffffffffffff169060200190929190505050610341565b005b610273600480360360608110156101bc57600080fd5b810190808035906020019092919080359060200190929190803590602001906401000000008111156101ed57600080fd5b8201836020820111156101ff57600080fd5b8035906020019184600183028401116401000000008311171561022157600080fd5b91908080601f016020809104026020016040519081016040528093929190818152602001838380828437600081840152601f19601f820116905080830192505050505050509192919290505050610369565b005b61027d61049d565b005b60025481565b600160009054906101000a900473ffffffffffffffffffffffffffffffffffffffff1681565b6000809054906101000a900473ffffffffffffffffffffffffffffffffffffffff1681565b6000809054906101000a900473ffffffffffffffffffffffffffffffffffffffff1673ffffffffffffffffffffffffffffffffffffffff163373ffffffffffffffffffffffffffffffffffffffff161461032957600080fd5b600254811161033757600080fd5b8060028190555050565b60025442101561035057600080fd5b8073ffffffffffffffffffffffffffffffffffffffff16ff5b600160009054906101000a900473ffffffffffffffffffffffffffffffffffffffff1673ffffffffffffffffffffffffffffffffffffffff163373ffffffffffffffffffffffffffffffffffffffff16146103c357600080fd5b6103f183600160009054906101000a900473ffffffffffffffffffffffffffffffffffffffff1684846105bf565b6103fa57600080fd5b600160009054906101000a900473ffffffffffffffffffffffffffffffffffffffff1673ffffffffffffffffffffffffffffffffffffffff166108fc849081150290604051600060405180830381858888f19350505050158015610462573d6000803e3d6000fd5b506000809054906101000a900473ffffffffffffffffffffffffffffffffffffffff1673ffffffffffffffffffffffffffffffffffffffff16ff5b6000809054906101000a900473ffffffffffffffffffffffffffffffffffffffff1673ffffffffffffffffffffffffffffffffffffffff163373ffffffffffffffffffffffffffffffffffffffff1614156104f757600080fd5b33600160006101000a81548173ffffffffffffffffffffffffffffffffffffffff021916908373ffffffffffffffffffffffffffffffffffffffff1602179055507f3c948ac77455390eef71d0fb58135e84aeab79321262a5621cc354c6fbd0c581600160009054906101000a900473ffffffffffffffffffffffffffffffffffffffff16604051808273ffffffffffffffffffffffffffffffffffffffff1673ffffffffffffffffffffffffffffffffffffffff16815260200191505060405180910390a1565b60008061066185878630604051602001808573ffffffffffffffffffffffffffffffffffffffff1673ffffffffffffffffffffffffffffffffffffffff1681526020018481526020018381526020018273ffffffffffffffffffffffffffffffffffffffff1673ffffffffffffffffffffffffffffffffffffffff168152602001945050505050604051602081830303815290604052805190602001206106c7565b90506000809054906101000a900473ffffffffffffffffffffffffffffffffffffffff1673ffffffffffffffffffffffffffffffffffffffff166106a58285610730565b73ffffffffffffffffffffffffffffffffffffffff1614915050949350505050565b60008160405160200180806020018381526020018281038252601c8152602001807f19457468657265756d205369676e6564204d6573736167653a0a33320000000081525060200192505050604051602081830303815290604052805190602001209050919050565b60008060008061073f856107bd565b80935081945082955050505060018684848460405160008152602001604052604051808581526020018460ff1660ff1681526020018381526020018281526020019450505050506020604051602081039080840390855afa1580156107a8573d6000803e3d6000fd5b50505060206040510351935050505092915050565b600080600060418451146107d057600080fd5b60008060006020870151925060408701519150606087015160001a9050808383955095509550505050919390925056fea265627a7a72315820bf4c9902ebe8f684b31cca28537c5fbae89012861317e150c6d9f2fe8a125ba064736f6c63430005100032",
  "source": "pragma solidity ^0.5.16;\n\ncontract Payment_Contract {\n    address payable public sender;\n    address payable public recipient;\n    uint256 public expiration;\n\n    event joinEvent(address add);\n\n    mapping(uint256 => bool) usedNonces;\n\n    constructor(uint256 duration) public payable {\n        sender = msg.sender;\n        expiration = now + duration;\n    }\n\n    function joinContract() public {\n        require(msg.sender != sender);\n        recipient = msg.sender;\n        emit joinEvent(recipient);\n    }\n\n    function isValidSignature(uint256 amount, address recipient, uint256 nonce, bytes memory signature) internal view returns (bool){\n        bytes32 message = prefixed(keccak256(abi.encode(recipient, amount, nonce, this)));\n        return recoverSigner(message, signature) == sender;\n    }\n\n    function close(uint256 amount, uint256 nonce, bytes memory signature) public {\n        require(msg.sender == recipient);\n        require(isValidSignature(amount, recipient, nonce, signature));\n\n        recipient.transfer(amount);\n        selfdestruct(sender);\n    }\n\n    function extend(uint256 newExpiration) public {\n        require(msg.sender == sender);\n        require(newExpiration > expiration);\n\n        expiration = newExpiration;\n    }\n\n    function claimTimeout(address payable sender) public {\n        require(now >= expiration);\n        selfdestruct(sender);\n    }\n\n    function splitSignature(bytes memory sig) internal pure returns (uint8, bytes32, bytes32){\n        require(sig.length == 65);\n\n        bytes32 r;\n        bytes32 s;\n        uint8 v;\n\n        assembly {\n            r := mload(add(sig, 32))\n            s := mload(add(sig, 64))\n            v := byte(0, mload(add(sig, 96)))\n        }\n\n        return (v, r, s);\n    }\n\n    function recoverSigner(bytes32 message, bytes memory sig) internal pure returns (address){\n        uint8 v;\n        bytes32 r;\n        bytes32 s;\n\n        (v, r, s) = splitSignature(sig);\n\n        return ecrecover(message, v, r, s);\n    }\n\n    function prefixed(bytes32 hash) internal pure returns (bytes32) {\n        return keccak256(abi.encode(\"\\x19Ethereum Signed Message:\\n32\", hash));\n    }\n}\n",
  "sourcePath": "/home/harsh/Desktop/Test_Channels/contracts/Payment_Contract.sol",
  "compiler": {
    "name": "solc",
    "version": "0.5.16+commit.9c3226ce.Emscripten.clang"
  },
  "schemaVersion": "3.2.2",
  "updatedAt": "2020-08-05T06:18:42.069Z",
  "devdoc": {
    "methods": {}
  },
  "userdoc": {
    "methods": {}
  }
}